:020000040800F2
:1000000060040020050100088F0D0008870D00081E
:100010008B0D0008DD0A00084D1C000800000000E0
:100020000000000000000000000000005D1000085B
:10003000E10B000800000000010E00084911000853
:100040001F0100081F0100081F0100081F01000810
:100050001F0100081F0100081F0100081F01000800
:100060001F0100081F0100081F0100081F010008F0
:100070001F0100081F0100081F0100081F010008E0
:100080001F0100081F0100081F0100081F010008D0
:100090001F0100081F0100081F0100081F010008C0
:1000A0001F0100081F0100081F0100081F010008B0
:1000B0001F0100081F010008F91300081F010008B4
:1000C0001F0100081F0100081F0100081F01000890
:1000D0001F0100081F0100081F0100081F01000880
:1000E0001F0100081F0100081F010008DFF810D0E1
:1000F00000F030F800480047F91F0008AFF3008017
:10010000600400200648804706480047FEE7FEE7F7
:10011000FEE7FEE7FEE7FEE7FEE7FEE7FEE7FEE7B7
:1001200059110008ED00000830B50B4601460020CB
:100130002022012409E021FA02F59D4205D303FAA9
:1001400002F5491B04FA02F52844151EA2F101022A
:10015000F1DC30BD064C074D06E0E06840F00103DD
:1001600094E8070098471034AC42F6D3FFF7C2FF7B
:10017000D4220008F422000821B1826842F0010272
:10018000826003E0826822F00102826070470146CB
:1001900000208A6802F004020AB1012000E0002079
:1001A00070470146C86C80B2704702460020136851
:1001B0000B400BB1012000E00020704701460020F9
:1001C0008A6802F008020AB1012000E000207047AE
:1001D00030B502460020002350680F4C20400D79B6
:1001E0000C6844EA05242043506090680B4C204082
:1001F000D1E902542C434D7944EA450420439060F0
:10020000D06A20F470000C7C641EE4B2234340EA00
:100210000350D06230BD0000FFFEF0FFFDF7F1FF9C
:10022000F0B504460D4600200021092D11DDE068DF
:10023000A5F10A0606EB4607072606FA07F18843EA
:10024000A5F10A0606EB460603FA06F10843E0604C
:100250000CE0206905EB4507072606FA07F18843FD
:1002600005EB450603FA06F108432061072A0FDA79
:10027000606B561E06EB86071F2606FA07F18843B9
:10028000561E06EB860605FA06F10843606322E077
:100290000D2A0FDA206BD61F06EB86071F2606FAFB
:1002A00007F18843D61F06EB860605FA06F10843D8
:1002B000206310E0E06AA2F10D0606EB86071F2618
:1002C00006FA07F18843A2F10D0606EB860605FA49
:1002D00006F10843E062F0BD816841F008018160E9
:1002E000704721B1826842F4A002826003E0826814
:1002F00022F4A00282607047816841F004018160AD
:100300007047000001480068704700002800002086
:1003100030B5144800684FF47A72B0FBF2F1B1F1D5
:10032000807F00D31DE021F07F40401E4FF0E0228F
:10033000506150170F22002807DA13071D0E0A4BD1
:1003400000F00F04241F1D5503E013071C0E074B7C
:100350001C5400BF00204FF0E02290610720106184
:1003600000BF30BD1400002018ED00E000E400E004
:1003700070B504464FF4FA7094FBF0F0C6B24FF437
:10038000FA7094FBF0F100FB114085B205E04FF4E8
:10039000FA7000F026FC701EC6B2002EF7D115B11F
:1003A000284600F01EFC70BD10B5024801F005FAA9
:1003B00010BD00000004004000B587B001210420FA
:1003C00000F04CFDC020ADF8180004208DF81B0093
:1003D00003208DF81A0006A91B4800F045FC0121F6
:1003E000022000F01BFD194801F0CCF803A801F031
:1003F0009BFB0020ADF80C004FF6FF70ADF810002D
:100400000020ADF81200ADF80E0003A90F4801F06E
:1004100039FB00231A4603210C4801F0A7F968466E
:1004200001F036FA0020ADF808006946074801F0EF
:10043000D9F900200549243108800121034801F041
:1004400086F807B000BD000000080140000400402D
:1004500001490880704700002404004010B54FF0A7
:10046000804001F0AAF910BD00B587B00121042039
:1004700000F0F4FC0320ADF8180004208DF81B00F8
:1004800003208DF81A0006A91D4800F0EDFB01219C
:10049000084600F0C3FC4FF0804001F073F803A859
:1004A00001F042FB0020ADF80C004FF6FF70ADF8F4
:1004B00010000020ADF81200ADF80E0003A94FF0B7
:1004C000804001F0DFFA00231A4603214FF08040FC
:1004D00001F04CF9684601F0DBF90020ADF80800A6
:1004E00069464FF0804001F07DF900204FF08041D7
:1004F00088840121880701F02AF807B000BD0000B8
:10050000000801404FF08041888470470146490649
:10051000084A926942F00102064B9A61064A526803
:1005200022F0E062044B5A601A4652680A435A604D
:1005300070470000001002400000014070B5044602
:10054000002C09DD1021124800F019FC0821104888
:1005500000F017FCA5B215E0002C0ADA08210C48BF
:1005600000F00DFC10210A4800F00BFC604285B23F
:1005700008E00821064800F002FC1021044800F0C1
:10058000FEFB00252946034801F04BFA70BD000030
:10059000000C0140002C014070B50446002C0ADD1F
:1005A0004FF48071124800F0EAFB2021104800F05F
:1005B000E8FBA5B217E0002C0BDA20210C4800F074
:1005C000DEFB4FF480710A4800F0DBFB604285B22D
:1005D00009E02021064800F0D2FB4FF48071044866
:1005E00000F0CDFB00252946024801F01CFA70BD41
:1005F000000C0140002C014000B589B00121C80267
:1006000000F02CFC0121042000F028FC012108202E
:1006100000F024FC4FF48070ADF8200018208DF815
:10062000230003208DF8220008A92E4800F01CFBAF
:100630004FF40060ADF8200018208DF8230008A9C1
:10064000284800F011FB4FF49C70ADF820001020FA
:100650008DF8230003208DF8220008A9224800F01D
:1006600003FB41F61F40ADF818000020ADF8140060
:10067000ADF81A00ADF8160005A91C4801F002FA01
:100680006020ADF804000120ADF806000020ADF8B0
:100690000C00ADF80A0001A9144801F00BF908217B
:1006A000124801F05CF901A9104801F06FF9082126
:1006B0000E4801F0A9F901210C4800F054FF012176
:1006C0000A4800F044FF0021084801F0AAF900217F
:1006D000064801F0A8F94FF49C71034800F04FFB65
:1006E00009B000BD00080140000C0140002C014091
:1006F00010B50446204600F02FF80246B2F5617F9F
:1007000003DB40F63400824201DD002010BDB2F56B
:10071000BE6F09DDA2F2DC50642148434FF416712C
:1007200090FBF1F003B20DE0B2F5B96F09DAA2F275
:10073000DC50642148434FF4167190FBF1F003B292
:1007400000E00023642B00DD642313F1640F01DA61
:100750006FF063031846D9E70146012902D1054825
:1007600000887047022902D103480088F9E7002079
:10077000F7E700002E0000203600002000B589B009
:100780000121042000F04AFB0121082000F066FB53
:10079000C020ADF8200004208DF8230008A92248CD
:1007A00000F062FA4FF6FF70ADF818004720ADF880
:1007B00014000020ADF81A00ADF8160005A91B487A
:1007C00001F060F90020ADF80800ADF80A00012042
:1007D000ADF80C000020ADF80E00ADF8100002A935
:1007E000124800F0FFFF0420ADF8080002A90F48EE
:1007F00000F0F8FF1E208DF8040001208DF80500A0
:1008000000208DF8060001208DF8070001A800F0F7
:10081000BFFA01220721054801F043F801210348EE
:1008200000F095FE09B000BD000C0140000800403A
:100830000146012909D10C4800684CF2503290421F
:1008400001D2012070470020FCE7022909D10748A6
:1008500000684CF25032904201D20120F2E70020B1
:10086000F0E70020EEE70000300000203800002014
:1008700010B586B004460121042000F0EFFA0121F2
:10088000880300F0EBFA4FF40070ADF81400182064
:100890008DF8170003208DF8160005A9124800F006
:1008A000E3F94FF48060ADF8140004208DF81700D0
:1008B00005A90D4800F0D8F901940020ADF8080012
:1008C000ADF80A00ADF80C00ADF810000C20ADF842
:1008D0000E0001A9054801F049F90121034801F082
:1008E0002CF906B010BD000000080140003801409E
:1008F00070B50723012202210D48FFF791FC012169
:100900000B48FFF7EEFC00BF02210948FFF74DFC42
:100910000028F9D00648FFF744FC044640F6426040
:10092000604340F6FF7190FBF1F085B2284670BD40
:100930000028014000B587B00121042000F08EFAA4
:100940000420ADF8180000208DF81B0006A91D48F2
:1009500000F08AF90121880200F080FA002001905D
:100960008DF808008DF809004FF4602003900020F6
:10097000049001208DF8140001A91348FFF728FC0A
:100980004FF4004000F03EFA0723012202210E48F6
:10099000FFF746FC01210C48FFF7EEFB0A48FFF782
:1009A0009BFC00BF0848FFF709FC0028FAD1064865
:1009B000FFF7A2FC00BF0448FFF7E9FB0028FAD1CB
:1009C00007B000BD000801400028014070B5FFF7E6
:1009D00099FC044629480078042802D14FF4FA70A3
:1009E00001E04FF4FA70054625480068201AA84235
:1009F00043D322480078401C052190FBF1F201FB13
:100A000012001E4908701E4804601EA001F020F963
:100A10001A480078052826D2DFE800F0030C141DE0
:100A200026001EA001F014F940F63401084600F03B
:100A3000FDF821E01CA001F00BF91E49084600F06A
:100A4000F5F819E01CA001F003F940F63401484222
:100A500000F0ECF810E01BA001F0FAF8154948424C
:100A600000F0E4F808E000BF1AA001F0F1F800215E
:100A7000084600F0DBF800BF00BF70BD0700002093
:100A8000080000204175746F204D6F6465202D2093
:100A9000416374696F6E3A2000000000464F525760
:100AA0004152440D0A0000004241434B5741524419
:100AB0000D0A0000CCF7FFFF5455524E5F4C4546DF
:100AC000540D0A005455524E5F52494748540D0A7E
:100AD0000000000050415553450D0A0000BFFEE7DD
:100AE00070B522480078002829D10120FFF7A0FE28
:100AF000002824D00220FFF79BFE00B30120FFF75F
:100B0000F7FD04460220FFF7F3FD0546211E01DB39
:100B10000A4600E04A42052A06DC281E01DB02469E
:100B200000E04242052A09DD012010490870FFF764
:100B3000E9FB0F4908600FA001F08AF800BF0B48DD
:100B400000781849097888420ED0084800780128B2
:100B500003D115A001F07CF802E01AA001F078F8AA
:100B6000024800780F49087070BD000006000020A0
:100B70000C0000205243207369676E616C2064652D
:100B80007465637465642120537769746368696E62
:100B90006720746F205243204D6F64652E2E2E0DFA
:100BA0000A000000100000203D3D3D20524320433C
:100BB0004F4E54524F4C204D4F4445203D3D3D0D2E
:100BC0000A0000003D3D3D204155544F2044454D15
:100BD0004F204D4F4445203D3D3D0D0A0000000093
:100BE0007047014642F228324A434FF0E0235A61EF
:100BF00000229A611A46126942F001021A6100BF8E
:100C00004FF0E022106900F001021AB100F48032C6
:100C1000002AF5D04FF0E022126922F001024FF0D5
:100C2000E0231A6100229A617047000070B5054602
:100C30000C46B5F5E15F01DD4FF4E15515F5E15FD7
:100C400000DA084DB4F5E15F01DD4FF4E15414F52D
:100C5000E15F00DA034C2846FFF79EFC2046FFF7D1
:100C60006DFC70BDE0E3FFFF2DE9F0410246002579
:100C70000026002000230024002791F803C00CF078
:100C80000F0591F803C00CF0100CBCF1000F03D05D
:100C900091F802C04CEA050591F800C0BCF1000FC4
:100CA00031D0146800202BE04FF0010C0CFA00F357
:100CB000B1F800C00CEA03069E4220D183004FF039
:100CC0000F0C0CFA03F7BC4305FA03FC4CEA0404CE
:100CD00091F803C0BCF1280F06D14FF0010C0CFABB
:100CE00000FCC2F814C00AE091F803C0BCF1480F40
:100CF00005D14FF0010C0CFA00FCC2F810C0401CEA
:100D00000828D1D31460B1F800C0BCF1FF0F34DD66
:100D1000546800202EE000F1080C4FF0010808FA9A
:100D20000CF3B1F800C00CEA03069E4221D1830007
:100D30004FF00F0C0CFA03F7BC4305FA03FC4CEA26
:100D4000040491F803C0BCF1280F05D100F1080C90
:100D500008FA0CF8C2F8148091F803C0BCF1480FEF
:100D600007D100F1080C4FF0010808FA0CF8C2F89E
:100D70001080401C0828CED35460BDE8F08141614A
:100D800070470161704700BFFEE700BFFEE7704794
:100D900070B5002100230F22C47804B3154C2468D9
:100DA00004F4E064C4F5E064210AC1F10403CA401C
:100DB000447804FA03F184781440214309010E4C6D
:100DC0000678A155047804F01F050124AC4005788D
:100DD0006D11AD0005F1E025C5F8004109E004788A
:100DE00004F01F050124AC40044D0678761145F847
:100DF000264070BD0CED00E000E400E080E100E082
:100E00007047000001460020034A506820F440402B
:100E100008435060704700000010024029B1064AA4
:100E2000D2690243044BDA6104E0034AD269824387
:100E3000014BDA61704700000010024029B1064AF8
:100E400012690243044B1A6104E0034A12698243A7
:100E5000014B1A61704700000010024029B1064A98
:100E600092690243044B9A6104E0034A9269824307
:100E7000014B9A61704700000010024029B1064AF8
:100E8000D2680243044BDA6004E0034AD26882432A
:100E9000014BDA60704700000010024030B50021BD
:100EA0000022002400232D4D6D6805F00C0121B1B6
:100EB000042905D0082923D105E0294D056022E049
:100EC000274D05601FE0254D6D6805F47012234D18
:100ED0006D6805F48034022505EB92421CB9214D62
:100EE000554305600BE01D4D6D6805F400351DB1DF
:100EF0001C4D5543056002E0194D5543056002E065
:100F0000174D056000BF00BF144D6D6805F0F0017E
:100F10000909154D6B5C0568DD4045600F4D6D6836
:100F200005F4E061090A104D6B5C4568DD408560A1
:100F30000A4D6D6805F46051C90A0B4D6B5C45683C
:100F4000DD40C560054D6D6805F44041890B074DD6
:100F50006B5CC568B5FBF3F5056130BD0010024060
:100F600000127A0000093D004200002052000020DB
:100F700070B5FFF7C7F904460120FFF759FC90B19F
:100F80000220FFF755FC70B10120FFF7B1FB0546C9
:100F90000220FFF7ADFB06463146284600F032F846
:100FA0000A48046011E009480068201AB0F57A7F09
:100FB0000BD907A000F04CFE00210846FFF736FED3
:100FC00000200E4908700E48046070BD0C0000201F
:100FD0005243207369676E616C206C6F73742120BB
:100FE000537769746368696E6720746F2041757404
:100FF0006F204D6F64652E2E2E0D0A000600002016
:10100000080000202DE9F04704460D46201E01DBB4
:10101000014600E04142052900DA0024281E01DBD8
:10102000014600E04142052900DA00254FF4E15075
:101030006043642190FBF1F64FF4E1506843C8210E
:1010400090FBF1F7F01B0FFA80F8F0190FFA80F916
:1010500041464846FFF7EAFDBDE8F087704710B506
:1010600000F002F810BD00000CB5002001900090C7
:101070003348006840F480303149086000BF304890
:10108000006800F4003000900198401C0190009826
:1010900018B90198B0F5A06FF1D12948006800F4A3
:1010A000003010B10120009001E000200090009875
:1010B000012843D12348006840F01000214908600E
:1010C0000846006820F0030008600846006840F009
:1010D000020008601A48406819494860084640689C
:1010E00048600846406840F48060486008464068B0
:1010F00020F47C1048600846406840F4E8104860DE
:101100000846006840F08070086000BF0C48006826
:1011100000F000700028F9D00948406820F0030072
:10112000074948600846406840F00200486000BF38
:101130000348406800F00C000828F9D10CBD0000FD
:10114000001002400020024002480068401C014993
:10115000086070472800002010B51348006840F070
:1011600001001149086008464068104908400E49CE
:101170004860084600680E4908400B490860084668
:10118000006820F4802008600846406820F4FE00D3
:1011900048604FF41F008860FFF761FF4FF0006068
:1011A0000449086010BD0000001002400000FFF874
:1011B000FFFFF6FE08ED00E0F0B50C4615460022F4
:1011C0000021068C4FF6FE773E400684028B018C90
:1011D0004FF60C7632407E1C06EA03162E4332434D
:1011E000104EB0420ED0104EB0420BD0B0F1804F36
:1011F00008D00E4EB04205D00D4EB04202D00D4E7A
:10120000B04206D14FF6FD76314044F0010631433D
:1012100005E04FF6F576314044F001063143028394
:101220000184F0BD002C0140003401400004004066
:1012300000080040000C0040F0B50C4615460022A6
:1012400000210026078C4FF6EF7C07EA0C07078485
:10125000028B018C4FF6FF7707EA041640F6FF4732
:101260003A404FF6FF7707EA03373A434FF6FF77E6
:1012700007EA05273A43114FB8420ED0104FB84243
:101280000BD0B0F1804F08D00E4FB84205D00E4FB2
:10129000B84202D00D4FB84206D14FF6DF77394041
:1012A00046F01007394305E04FF65F77394044F0C8
:1012B0001007394302830184F0BD0000002C014077
:1012C000003401400004004000080040000C0040D1
:1012D000F0B50C461546002200210026078C4FF67B
:1012E000FF6C07EA0C070784828B018C4FF6FF77AF
:1012F00007EA04264FF60C773A404FF6FF7707EAE5
:1013000003172F433A43114FB8420ED0104FB84243
:101310000BD0B0F1804F08D00E4FB84205D00E4F21
:10132000B84202D00D4FB84206D14FF6FF573940B0
:1013300046F48077394305E04FF2FF57394044F4D3
:101340008077394382830184F0BD0000002C014086
:10135000003401400004004000080040000C004040
:10136000F0B50C461546002200210026078C4EF6EB
:10137000FF7C07EA0C070784828B018C4FF6FF770E
:1013800007EA043640F6FF473A404FF6FF7707EA90
:1013900005273A434FF6FF7707EA03373A43114FE1
:1013A000B8420ED0104FB8420BD0B0F1804F08D0E9
:1013B0000E4FB84205D00E4FB84202D00D4FB84282
:1013C00006D14DF6FF77394046F48057394305E0A2
:1013D00047F6FF57394044F48057394382830184EC
:1013E000F0BD0000002C014000340140000400402A
:1013F00000080040000C004010B50221494800F0F0
:10140000DFF9002834D00221464800F09DF8464814
:10141000007860B9434800F0CAF9444908800221C5
:10142000404800F093FA01203F49087020E03D4811
:1014300000F0BDF904463D480088844205DB3B4886
:101440000088201A3A49088008E0384800884FF69A
:10145000FF71081A2044401C35490880002131489A
:1014600000F074FA0020304908703249086000BF6B
:1014700004212C4800F0A4F9A0B30421294800F06D
:1014800063F82D48007860B9264800F093F92B499D
:1014900008800221234800F06BFA012026490870D9
:1014A00020E0204800F086F9044624480088844261
:1014B00005DB22480088201A2149088008E01F48DF
:1014C00000884FF6FF71081A2044401C1C49088010
:1014D0000021144800F04CFA0020174908701949FF
:1014E000086000BF01210F4800F06AF9C8B101216E
:1014F0000C4800F029F80F4800684EF66021884239
:1015000004D20C480068401C0A4908600D48006875
:101510004EF66021884204D20A480068401C0949FE
:10152000086010BD00080040400000203C00002082
:101530002E00002030000020410000203E0000204E
:101540003600002038000020CA430282704721B1D3
:10155000028842F00102028004E002884FF6FE7326
:101560001A400280704731B1B0F8442042F4004282
:10157000A0F8442005E0B0F84420C2F30E02A0F821
:101580004420704710B504466848844208D10121C0
:10159000C014FFF773FC0021E014FFF76FFCC4E0F8
:1015A000B4F1804F08D101210846FFF747FC002124
:1015B0000120FFF743FCB8E05D48844208D10121D7
:1015C0000220FFF73BFC00210220FFF737FCACE0D4
:1015D0005848844208D101210420FFF72FFC002144
:1015E0000420FFF72BFCA0E05348844208D10121DE
:1015F0000820FFF723FC00210820FFF71FFC94E0E0
:101600004E48844208D101211020FFF717FC002129
:101610001020FFF713FC88E04948844208D10121DB
:101620002020FFF70BFC00212020FFF707FC7CE0C7
:101630004448844208D101214014FFF71FFC0021D7
:101640006014FFF71BFC70E03F48844209D1012180
:10165000C804FFF713FC00214FF40020FFF70EFC35
:1016600063E03A48844209D101210805FFF706FCEE
:1016700000214FF48010FFF701FC56E0344884420B
:1016800009D101214805FFF7F9FB00214FF40010B3
:10169000FFF7F4FB49E02F48844208D101214020A4
:1016A000FFF7CCFB00214020FFF7C8FB3DE02A48B4
:1016B000844208D101218020FFF7C0FB0021802057
:1016C000FFF7BCFB31E02548844208D10121801599
:1016D000FFF7B4FB0021A015FFF7B0FB25E0204881
:1016E000844209D101210804FFF7C8FB00214FF40F
:1016F0008030FFF7C3FB18E01A48844209D101216A
:101700004804FFF7BBFB00214FF40030FFF7B6FBA6
:101710000BE01548844208D101218804FFF7AEFB95
:1017200000214FF48020FFF7A9FB10BD002C0140E1
:101730000004004000080040000C00400010004081
:101740000014004000340140004C014000500140B2
:101750000054014000180040001C004000200040E0
:10176000004001400044014000480140F0B50C46F3
:1017700015461E460021002200230189028B038C9E
:101780004FF6F877394021434FF6FC473A4040F294
:1017900001173A434FF6DD773B404FF6FF7707EAF4
:1017A00006172F433B43018102830384F0BD0146AA
:1017B000888E70470146088F70470146888C7047B5
:1017C00030B50246002000230024158A05EA0103F3
:1017D000958905EA010413B10CB1012000E0002055
:1017E00030BD000070B505460C46244885420ED039
:1017F000234885420BD0B5F1804F08D0214885425F
:1018000005D02148854202D02048854200D100E021
:1018100000BF208850B92389A28861882846FFF735
:10182000CBFCE188284600F001F925E02088042857
:101830000AD12389A28861882846FFF7FDFCE18848
:10184000284600F0FCF817E0208808280AD12389F0
:10185000A28861882846FFF73BFDE188284600F012
:10186000FBF809E02389A28861882846FFF778FD04
:10187000E188284600F0F9F870BD0000002C014016
:10188000003401400004004000080040000C00400B
:10189000002101804180012181800021C1800181DE
:1018A00070471AB183890B43838102E083898B439C
:1018B0008381704770B5002400220023058C4FF609
:1018C000FE7635400584028C8388048B4FF68F7535
:1018D0002C40B51E2C400D882C43751E2A400D89C6
:1018E0002A434D882A43144DA8420BD0134DA842D9
:1018F00008D0134DA84205D0124DA84202D0124D77
:10190000A84213D14FF6F7752A404D892A434FF666
:10191000FB752A408D882A434FF6FF652B404FF612
:10192000FF552B408D892B43CD892B438380048326
:10193000CD888586028470BD002C014000340140B2
:101940000040014000440140004801400A46002197
:10195000018C4FF6FD7319401143018470470A460C
:101960000021018B4FF6F773194011430183704733
:101970000A460021018C4FF6DF7319404FF6FF73C2
:1019800003EA0213194301847047000070B5002276
:1019900000230024058C4EF6FF7635400584038C29
:1019A0008488828B48F6FF752A404FF6FF452A400F
:1019B0000D884FF6FF7606EA05252A434DF6FF759A
:1019C0002B400D8906EA05352B434D8806EA05357F
:1019D0002B430B4DA84202D00A4DA84208D14BF62A
:1019E000FF752C408D894FF6FF7606EA85152C434E
:1019F00084808283CD88A0F84050038470BD0000AD
:101A0000002C0140003401400A460021818B4FF236
:101A1000FF7319404FF6FF7303EA022319438183D2
:101A2000704781867047A0F840107047028B4FF6D0
:101A3000F3731A400283028B0A4302837047028BBE
:101A40004FF2FF331A400283028B4FF6FF7303EA13
:101A500001231A4302837047828B4FF6F3731A40B7
:101A60008283828B0A4382837047828B4FF2FF33DB
:101A70001A408283828B4FF6FF7303EA01231A43D5
:101A800082837047002202881D4B98420ED01D4B66
:101A900098420BD0B0F1804F08D01B4B984205D034
:101AA0001A4B984202D01A4B984204D14FF68F73CA
:101AB0001A404B881A43174B984207D0164B98424E
:101AC00004D04FF6FF431A40CB881A4302808B881C
:101AD00083850B8803850A4B98420BD0094B9842AB
:101AE00008D00E4B984205D00D4B984202D00D4BBA
:101AF000984201D10B7A038601238382704700004C
:101B0000002C014000340140000400400008004067
:101B1000000C004000100040001400400040014054
:101B200000440140004801404FF6FF7181800021D0
:101B30000180C18041800172704721B1828942F4E5
:101B40000052828104E082894DF6FF731A4082813F
:101B5000704702460020B1F5007F00D100BF138816
:101B60000B400BB1012000E0002070472DE9F04749
:101B700086B005460E460024A24600BFA1460027B7
:101B8000B08900B100BF2F462C8A4CF6FF7004408C
:101B9000F08804432C82AC894EF6F3100440B088E0
:101BA00031890843718908430443AC81AC8A4FF6FC
:101BB000FF400440B0890443AC8201A8FFF76EF9EE
:101BC0001F48874202D1DDF810A001E0DDF80CA02B
:101BD000A88900F4004040B10AEBCA0000EB0A10EB
:101BE00031684900B0FBF1F807E00AEBCA0000EBEE
:101BF0000A1031688900B0FBF1F86420B8FBF0F0FE
:101C000004012009642101FB1089A88900F4004027
:101C100040B1322000EBC900B0FBF1F000F007004A
:101C2000044308E0322000EB09106421B0FBF1F01E
:101C300000F00F0004432C8106B0BDE8F0870000DF
:101C400000380140C1F308028280704700BFFEE700
:101C50000FB4054B10B503A9044A029800F018F818
:101C600010BC5DF814FB0000D51F000858000020D0
:101C700002E008C8121F08C1002AFAD17047704755
:101C8000002001E001C1121F002AFBD170470000B3
:101C90002DE9FF4F8BB088460546002606E0252833
:101CA0000BD0DDE90D1290476D1C761C28780028BA
:101CB000F5D10FB03046BDE8F08F0024A146A24612
:101CC0000122AE4900E0044315F8013F203B02FA2F
:101CD00003F00842F7D128782A2810D06FF02F029D
:101CE0002878A0F13001092915D809EB890102EB08
:101CF000410144F0020400EB01096D1CF0E758F8C3
:101D0000041B5FEA010903D544F40054C9F100093A
:101D100044F002046D1C28782E2817D115F8010F05
:101D200044F004042A280ED06FF02F022878A0F186
:101D3000300109290AD80AEB8A0102EB410100EBC4
:101D4000010A6D1CF2E758F804AB6D1C28786C286A
:101D50000FD006DC4C2817D068280DD06A2814D183
:101D600004E0742810D07A280FD10DE044F4001458
:101D70000AE044F4801401E044F44014697881429C
:101D800002D104F580146D1C6D1C2878692865D07B
:101D900006DC00288DD0632827D0642806D15DE0BA
:101DA0006E2808D073282AD0752877D0DDE90D1267
:101DB0009047761CE0E0C4F30250022809D00328C3
:101DC0000DD0D8F8001004280DD00E6008F10408DA
:101DD000D2E0D8F80010F217C1E90062F6E7D8F8AF
:101DE00000100E80F2E70E70F0E718F8041B8DF873
:101DF000001000208DF80100EB46012003E058F8A8
:101E000004BB4FF0FF3061074FF0000701D40AE038
:101E10007F1C57450DDA8742FADB1BF807100029B3
:101E2000F6D106E07F1C8742FCDB1BF80710002977
:101E3000F8D1DDE90D23A9EB07008146214600F02A
:101E4000B1F83044C61904E0DDE90D121BF8010BAE
:101E500090477F1EF8D22146484688E058F8040B88
:101E6000C4F302514FF00A0B032900D100B2042938
:101E700000D140B2002802DA40422D2102E02105C3
:101E800005D52B218DF82410012104E006E0E1079F
:101E900010D02021F6E708AF089113E058F8040BA2
:101EA000C4F302514FF00A0B032900D180B2042978
:101EB00000D1C0B20021EEE75946FEF735F93031C6
:101EC00007F8011D0028F7D1ADEB070000F1200B4A
:101ED000600702D524F4803401E04FF0010ADA45AE
:101EE00002DDAAEB0B0000E00020824600EB0B01B4
:101EF00008980144A9EB01000A90E00306D4DDE94B
:101F00000D2321460A9800F04DF806444FF00009D1
:101F100008E009A911F80900DDE90D12904709F15F
:101F20000109761C08998945F3DBE0030CD5DDE94E
:101F30000D2321460A9800F035F8064404E0DDE957
:101F40000D1230209047761CBAF10001AAF1010A67
:101F5000F5DC05E0DDE90D1217F8010B9047761C62
:101F6000BBF10001ABF1010BF4DC0A982146DDE97D
:101F70000D2300F005F806446D1C97E609280100C2
:101F80002DE9F041044600251E461746880404D476
:101F900005E039462020B0476D1C641EF9D528465F
:101FA000BDE8F0812DE9F041044600251E4690462B
:101FB000C80301D5302700E02027880404D505E0B8
:101FC00041463846B0476D1C641EF9D52846BDE829
:101FD000F081000070B504460D46E1B20548FFF7F8
:101FE00031FE00BF40210348FFF7B3FD0028F9D0C0
:101FF000204670BD003801401CB500250024FEF7C6
:1020000087F94FF4E130FEF733FC4BA0FFF720FED9
:102010004BA0FFF71DFE55A0FFF71AFE48A0FFF7E3
:1020200017FE5DA0FFF714FE66A0FFF711FE4FF448
:102030007A7205216DA0FFF70BFE41A0FFF708FEA5
:102040000220FEF763FA0120FEF760FAFEF7D4FAE9
:10205000FEF7B2F9FEF708FAFEF76CFCFEF78EFB0E
:102060006BA0FFF7F5FD73A0FFF7F2FDFEF74AF94D
:102070007D4908605EE0FEF745F90446FEF730FD55
:102080007A480078012802D1FEF772FF01E0FEF7DE
:102090009DFC601BC8284AD32546FEF785F900B28F
:1020A00073490880FEF7DAF900B27249088000200F
:1020B000FEF7CEF90020FEF725FAFEF719FC6E496F
:1020C00008800120FEF748FB81460220FEF744FB12
:1020D00082460120FEF70CFB83460220FEF708FB38
:1020E000064665480088642190FBF1F201FB120767
:1020F0006148008890FBF1F85C48CDE900870078E2
:10210000012801D15DA000E05DA001465948B0F969
:1021100000305748B0F900205BA0FFF799FD534607
:102120005A46494662A00096FFF792FD00BF0A207A
:10213000FEF71EF99FE7000020200D0A00000000B6
:102140003D3D3D3D3D3D3D3D3D3D3D3D3D3D3D3DBF
:102150003D3D3D3D3D3D3D3D3D3D3D3D3D3D3D3DAF
:102160003D3D3D3D3D3D3D3D0D0A000020202020F0
:10217000585441524B20524320446966666572654B
:102180006E7469616C2044726976652043617220C7
:102190002020200D0A000000524320436F6E74720D
:1021A0006F6C3A204348313D5468726F74746C65AB
:1021B0002C204348323D5374656572696E670D0A81
:1021C000000000004175746F204D6F64653A204631
:1021D0006F72776172642D3E4261636B2D3E4C6578
:1021E00066742D3E52696768740D0A00524320449C
:1021F00065616462616E643A20256425252C205453
:10220000696D656F75743A2025646D730D0A000061
:1022100053797374656D20696E697469616C697A4C
:102220006564207375636365737366756C6C79217F
:102230000D0A00005374617274696E6720696E2024
:102240004175746F204D6F64652C205243206F766A
:1022500065727269646520617661696C61626C6542
:102260002E2E2E0D0A0D0A00080000200600002068
:102270000000002002000020040000205243000063
:102280004155544F000000005B25735D20454E43CF
:102290005F413A25346420454E435F423A25346419
:1022A0002056494E3A25642E2530326456200000CF
:1022B0004348313A2534647573282533642525292C
:1022C000204348323A253464757328253364252524
:1022D000290D0A00F4220008000000205C00000024
:1022E000701C0008502300085C000020040400005B
:1022F000801C00080000000000000000000000003A
:10230000000000000000000000A24A0400000000DD
:102310000000000001020304060708090000000095
:1023200000000000000000000000000000000000AD
:102330000000000000000000000001020304010290
:102340000304060708090204060800000000000054
:04000005080000ED02
:00000001FF
